:100000000C9434000C9451000C9451000C94510049
:100010000C946D000C9451000C9451000C94510000
:100020000C9451000C9451000C9451000C94CD0090
:100030000C9451000C9451000C9451000C945100FC
:100040000C9451000C9451000C9451000C945100EC
:100050000C9451000C9451000C9451000C945100DC
:100060000C9451000C94510011241FBECFEFD8E026
:10007000DEBFCDBF11E0A0E0B1E0EEEEF4E002C0E3
:1000800005900D92AC32B107D9F711E0ACE2B1E0C6
:1000900001C01D92A133B107E1F70E948D010C94BC
:1000A00075020C9400009C01220F331F40E050E0C9
:1000B00060E074E284EF90E00E942402215030401E
:1000C000309389002093880089E080938100EFE6D7
:1000D000F0E080818260808308951F920F920FB6B6
:1000E0000F9211242F933F938F939F9326B186B144
:1000F00090E08072907034E0959587953A95E1F79D
:1001000030E02270307035952795822B80932F0137
:1001100090912F0180912E019817B1F180912E01BD
:10012000882321F480912F018130C1F080912E012C
:10013000813021F480912F01833081F080912E0154
:10014000833021F480912F01823041F080912E0183
:10015000823051F480912F01882331F480912C0159
:1001600090912D01019605C080912C0190912D0157
:10017000019790932D0180932C0180912F01809302
:100180002E0181E0809330019F918F913F912F91BB
:100190000F900FBE0F901F9018951F920F920FB6E1
:1001A0000F9211248F939F9385B190E1892785B990
:1001B0009F918F910F900FBE0F901F901895809177
:1001C0002C0190912D0187709070892B79F5809189
:1001D0002C0190912D0197FF08C080912C019091E6
:1001E0002D01909581959F4F04C080912C01909195
:1001F0002D0160E470E00E94110268E070E00E944E
:100200001102E62FF0E0EE0FFF1FE55EFE4F80814A
:1002100091810E94530080E197E220E931E0F901E9
:100220003197F1F70197D9F7109281000895CF9394
:10023000DF93EC0181E00E94CB0180E060E00E944E
:10024000DE01D7FF06C08DE20E94AB01D095C195BB
:10025000DF4FC436D10574F0CE0164E670E00E9431
:100260001102CB016AE070E00E941102805D0E94E1
:10027000AB0103C0CA30D1056CF0CE016AE070E07A
:100280000E941102CB016AE070E00E941102805DC1
:100290000E94AB01CE016AE070E00E941102805D15
:1002A0000E94AB01DF91CF9108950E94E80180E0A8
:1002B00091E00E94BF0180E197E220E931E0F9017D
:1002C0003197F1F70197D9F781E00E94CB0188B10E
:1002D000826288B9249A26B186B190E080729070CB
:1002E00064E0959587956A95E1F730E0227030706B
:1002F00035952795822B80932E018091680082602E
:100300008093680080916C00826280936C001092F0
:10031000800010928100789408950E945501809188
:1003200030018823E1F380912C0190912D010E94EE
:1003300017010E94DF0010923001F1CF9BB182952E
:10034000807F9F70982B9BB9299A299A299885E0DC
:100350008A95F1F708951F93182F85B18C7F8160DE
:1003600085B9812F82958F700E949E01812F0E94F6
:100370009E0180E49FE10197F1F71F910895CF93CB
:10038000DF93EC0102C00E94AB0189918823D9F769
:10039000DF91CF9108951F93182F85B18C7F85B978
:1003A000812F82958F700E949E01812F0E949E0155
:1003B00080E49FE10197F1F71F910895882319F4D4
:1003C000862F805802C0862F80540E94CB0108954A
:1003D000209A219A579A569A559A549A80E69AEEFC
:1003E0000197F1F780E30E949E0180E29EE401976D
:1003F000F1F780E30E949E0180EE91E00197F1F712
:1004000080E30E949E0180E20E949E0180E49FE1C1
:100410000197F1F788E20E94CB018FE00E94CB01A7
:10042000089597FB092E07260AD077FD04D027D020
:1004300006D000201AF4709561957F4F0895F6F765
:10044000909581959F4F089597FB092E05260ED014
:1004500057FD04D028D00AD0001C38F450954095A0
:10046000309521953F4F4F4F5F4F0895F6F7909588
:100470008095709561957F4F8F4F9F4F0895AA1B70
:10048000BB1B51E107C0AA1FBB1FA617B70710F07F
:10049000A61BB70B881F991F5A95A9F780959095B1
:1004A000BC01CD010895A1E21A2EAA1BBB1BFD01C0
:1004B0000DC0AA1FBB1FEE1FFF1FA217B307E40743
:1004C000F50720F0A21BB30BE40BF50B661F771F9B
:1004D000881F991F1A9469F760957095809590957B
:0E04E0009B01AC01BD01CF010895F894FFCF40
:1004EE004C61622033202D204A656D75656C20416C
:1004FE006D706F72696E6775657A00060126014A26
:0C050E00015D018801B801EE010B020044
:00000001FF
