:100000000C9434000C943E000C943E000C943E0082
:100010000C943E000C943E000C943E000C943E0068
:100020000C943E000C943E000C943E000C943E0058
:100030000C943E000C943E000C943E000C943E0048
:100040000C943E000C943E000C943E000C943E0038
:100050000C943E000C943E000C943E000C943E0028
:100060000C943E000C943E0011241FBECFEFD8E04C
:10007000DEBFCDBF0E9458000C94CE000C9400004F
:100080005A9A84EC99E020E931E0F9013197F1F7CF
:100090000197D9F75A9808955A9A88E893E120E988
:1000A00031E0F9013197F1F70197D9F75A9808959E
:1000B000CF93DF93529A85B1886385B9C0E9D1E0C7
:1000C0001B9917C04BC0FE013197F1F70197D9F783
:1000D0000E944C0088E893E1FE013197F1F7019707
:1000E000D9F75A9880E197E2FE013197F1F701972D
:1000F000D9F71C9918C037C0FE013197F1F7019765
:10010000D9F70E94400084EC99E0FE013197F1F7A5
:100110000197D9F70E94400080E197E2FE013197F4
:10012000F1F70197D9F71D99CBCF22C0FE01319786
:10013000F1F70197D9F70E94400084EC99E0FE01A5
:100140003197F1F70197D9F70E944C0080E197E2CF
:10015000FE013197F1F70197D9F7B2CF0E944C0019
:1001600088E893E1B0CF0E94400084EC99E0C4CFCE
:100170000E94400084EC99E0D9CF882311F45A986A
:1001800008955A9A089523B130E002C03595279515
:100190008A95E2F72095822F81700895F894FFCF19
:00000001FF
