:100000000C9434000C943E000C943E000C943E0082
:100010000C943E000C943E000C943E000C943E0068
:100020000C943E000C943E000C943E000C943E0058
:100030000C943E000C943E000C943E000C943E0048
:100040000C943E000C943E000C943E000C943E0038
:100050000C943E000C943E000C943E000C943E0028
:100060000C943E000C943E0011241FBECFEFD8E04C
:10007000DEBFCDBF0E9440000C94D1000C94000064
:100080000E94A80081E00E948B0080E060E00E9456
:100090009E008DE40E946B0083E50E946B0085E565
:1000A0000E946B0088E893E120E931E0F901319783
:1000B000F1F70197D9F788E893E1F8CF9BB18295E2
:1000C000807F9F70982B9BB9299A299A299885E05F
:1000D0008A95F1F708951F93182F85B18C7F816061
:1000E00085B9812F82958F700E945E00812F0E94BA
:1000F0005E0080E49FE10197F1F71F910895CF938F
:10010000DF93EC0102C00E946B0089918823D9F72C
:10011000DF91CF9108951F93182F85B18C7F85B9FA
:10012000812F82958F700E945E00812F0E945E0059
:1001300080E49FE10197F1F71F910895882319F456
:10014000862F805802C0862F80540E948B0008950D
:10015000209A219A579A569A559A549A80E69AEE7E
:100160000197F1F780E30E945E0080E29EE4019730
:10017000F1F780E30E945E0080EE91E00197F1F7D5
:1001800080E30E945E0080E20E945E0080E49FE1C6
:100190000197F1F788E20E948B008FE00E948B00AC
:0601A0000895F894FFCF62
:00000001FF
