:100000000C9434000C9451000C9451000C94510049
:100010000C9492000C9451000C9451000C945100DB
:100020000C9451000C9451000C9451000C946D00F0
:100030000C9451000C9483000C9451000C945100CA
:100040000C9451000C9451000C9451000C945100EC
:100050000C9451000C9451000C9451000C945100DC
:100060000C9451000C94510011241FBECFEFD8E026
:10007000DEBFCDBF11E0A0E0B1E0EAEEF4E002C0E7
:1000800005900D92A232B107D9F711E0A2E2B1E0DA
:1000900001C01D92A732B107E1F70E9499010C94AB
:1000A00073020C9400009C01220F331F40E050E0CB
:1000B00060E074E284EF90E00E9422022150304020
:1000C000309389002093880089E080938100EFE6D7
:1000D000F0E080818260808308951F920F920FB6B6
:1000E0000F9211248F939F9380912601882321F0F2
:1000F00085B190E1892785B99F918F910F900FBEAF
:100100000F901F9018951F920F920FB60F92112407
:10011000109281002C98109226010F900FBE0F9024
:100120001F9018951F920F920FB60F9211242F93C4
:100130003F934F935F936F937F938F939F93AF936F
:10014000BF93EF93FF9326B186B190E080729070D9
:1001500054E0959587955A95E1F730E0227030701C
:1001600035952795282B2093250180912401281768
:1001700009F496C0882319F42130A9F40EC0813007
:1001800019F4233081F409C0833019F4223059F472
:1001900004C0823041F4222331F4809122019091F5
:1001A0002301019605C080912201909123010197BE
:1001B00090932301809322012093240181E00E94E7
:1001C000C90180E060E00E94DC01809122019091F1
:1001D000230197FF1BC08DE20E94A901809122019B
:1001E0009091230166EF7FEF0E940F02CB016AE03E
:1001F00070E00E940F02805D0E94A901809122019F
:1002000090912301909581959F4F14C08091220178
:10021000909123016AE070E00E940F02CB016AE036
:1002200070E00E940F02805D0E94A901809122016E
:10023000909123016AE070E00E940F02805D0E94AD
:10024000A901809122019091230187709070892BE0
:1002500039F5809122019091230197FF08C0809188
:10026000220190912301909581959F4F04C0809128
:1002700022019091230160E470E00E940F0268E087
:1002800070E00E940F02E62FF0E0EE0FFF1FEE5E1F
:10029000FE4F808191810E94530081E0809326016E
:1002A000FF91EF91BF91AF919F918F917F916F914E
:1002B0005F914F913F912F910F900FBE0F901F9024
:1002C00018950E94E60180E091E00E94BD0180E166
:1002D00097E220E931E0F9013197F1F70197D9F779
:1002E00081E00E94C90188B1826288B9249A26B14E
:1002F00086B190E08072907074E0959587957A95BC
:10030000E1F730E02270307035952795822B80938D
:1003100024018091680082608093680080916C0065
:10032000826280936C001092800010928100789419
:1003300008950E946101FFCF9BB18295807F9F70DD
:10034000982B9BB9299A299A299885E08A95F1F7E3
:1003500008951F93182F85B18C7F816085B9812FF7
:1003600082958F700E949C01812F0E949C0180E4E5
:100370009FE10197F1F71F910895CF93DF93EC016F
:1003800002C00E94A90189918823D9F7DF91CF91FA
:1003900008951F93182F85B18C7F85B9812F829581
:1003A0008F700E949C01812F0E949C0180E49FE13C
:1003B0000197F1F71F910895882319F4862F80582B
:1003C00002C0862F80540E94C9010895209A219A64
:1003D000579A569A559A549A80E69AEE0197F1F7F1
:1003E00080E30E949C0180E29EE40197F1F780E3A4
:1003F0000E949C0180EE91E00197F1F780E30E945A
:100400009C0180E20E949C0180E49FE10197F1F74A
:1004100088E20E94C9018FE00E94C901089597FBFC
:10042000092E07260AD077FD04D027D006D0002059
:100430001AF4709561957F4F0895F6F79095819520
:100440009F4F089597FB092E05260ED057FD04D027
:1004500028D00AD0001C38F450954095309521954D
:100460003F4F4F4F5F4F0895F6F7909580957095E9
:1004700061957F4F8F4F9F4F0895AA1BBB1B51E182
:1004800007C0AA1FBB1FA617B70710F0A61BB70B04
:10049000881F991F5A95A9F780959095BC01CD01A9
:1004A0000895A1E21A2EAA1BBB1BFD010DC0AA1FB5
:1004B000BB1FEE1FFF1FA217B307E407F50720F0CD
:1004C000A21BB30BE40BF50B661F771F881F991F48
:1004D0001A9469F760957095809590959B01AC0191
:0A04E000BD01CF010895F894FFCF8D
:1004EA004C61622033202D20596F7572204E616D48
:1004FA006500060126014A015D018801B801EE0185
:02050A000B02E2
:00000001FF
