:100000000C9434000C9449000C9449000C94490061
:100010000C9449000C9449000C9449000C9449003C
:100020000C9449000C9449000C9449000C9449002C
:100030000C9449000C9449000C9449000C9449001C
:100040000C9449000C9449000C9449000C9449000C
:100050000C9449000C9449000C9449000C944900FC
:100060000C9449000C94490011241FBECFEFD8E036
:10007000DEBFCDBF11E0A0E0B1E0EEE7F8E002C0E6
:1000800005900D92AE31B107D9F70E944B000C9448
:100090003D040C9400008F929F92AF92BF92CF923A
:1000A000DF92EF92FF921F93DF93CF93CDB7DEB72E
:1000B00060970FB6F894DEBF0FBECDBF0E942F0130
:1000C00087B18D7D87B988B1826288B980E060E0B0
:1000D0000E94250180E091E00E94060180E197E204
:1000E00020E931E0F9013197F1F70197D9F781E083
:1000F0000E94120126B186B190E08072907045E0B6
:10010000959587954A95E1F7880F991F30E0227001
:10011000307035952795682F622B7E010894E11C7D
:10012000F11CB0E18B2E912CA3E1AA2EA1E0BA2EF6
:10013000F0E9CF2EF1E0DF2E86B190E0AC01407205
:100140005070E5E055954795EA95E1F79C012270DE
:10015000307036952795C901880F991F142F182BD9
:10016000161751F38DB79EB70A970FB6F8949EBF36
:100170000FBE8DBFEDB7FEB73196ADB7BEB71296C5
:10018000FC92EE92119793828282B582A482378389
:100190002683408711860E9458018DB79EB70A9624
:1001A0000FB6F8949EBF0FBE8DBF80E060E00E9446
:1001B0002501C7010E94060180ED97E0F601319705
:1001C000F1F70197612FD1F7B7CF9BB18295807F6F
:1001D0009F70982B9BB9299A299A299885E08A952E
:1001E000F1F708951F93182F85B18C7F816085B931
:1001F000812F82958F700E94E500812F0E94E5007B
:1002000080E49FE10197F1F71F910895CF93DF9369
:10021000EC0102C00E94F20089918823D9F7DF9196
:10022000CF9108951F93182F85B18C7F85B9812FA9
:1002300082958F700E94E500812F0E94E50080E486
:100240009FE10197F1F71F910895882319F4862FF4
:10025000805802C0862F80540E9412010895209A6F
:10026000219A579A569A559A549A80E69AEE01978F
:10027000F1F780E30E94E50080E29EE40197F1F748
:1002800080E30E94E50080EE91E00197F1F780E3C2
:100290000E94E50080E20E94E50080E49FE1019772
:1002A000F1F788E20E9412018FE00E941201089586
:1002B000AEE0B0E0EEE5F1E00C9414040D891E8987
:1002C0008F89988D97FF02C080E090E801979E8308
:1002D0008D831A83098386E08C839E01255E3F4FC0
:1002E000CE010196698D7A8DA9010E9489014D8107
:1002F0005E8157FD0AC02F813885421753070CF4E1
:100300009A01020F131FF80110822E96E4E00C945C
:100310003004ABE0B0E0EFE8F1E00C9406043C01FF
:100320002B015A01FC0117821682838181FD03C0D3
:100330006FEF7FEFC6C19AE0892E1E010894211C41
:10034000311CF3012381F20123FD859123FF81916B
:100350002F01882309F4B2C1853239F423FD859138
:1003600023FF81912F01853229F490E0B3010E948F
:100370007C03E7CF982FFF24EE249924FFE1FF159B
:10038000D0F09B3269F09C3228F4903259F09332CD
:1003900091F40EC09D3249F0903369F441E024C0DD
:1003A00052E0F52A84E0F82A28C098E0F92A25C00E
:1003B000E0E1FE2A22C0F7FC29C0892F80538A3051
:1003C00070F4F6FE05C0989C902C1124980E15C070
:1003D000E89CE02C1124E80EF0E2FF2A0EC09E32C9
:1003E00029F4F6FC6BC140E4F42A07C09C3619F4EA
:1003F00050E8F52A02C0983649F4F20123FD9591A0
:1004000023FF91912F01992309F0B8CF892F8554AB
:10041000833018F08052833038F444E050E0A40E6A
:10042000B51E5FE359830FC0933631F0933779F0EF
:10043000933509F056C020C0F5018081898342E0E0
:1004400050E0A40EB51E610101E010E012C0F501FC
:10045000C080D180F6FC03C06FEF7FEF02C0692D32
:1004600070E042E050E0A40EB51EC6010E94710388
:100470008C015FE7F52214C0F501C080D180F6FC45
:1004800003C06FEF7FEF02C0692D70E042E050E0E3
:10049000A40EB51EC6010E9466038C0150E8F52A21
:1004A000F3FE07C01AC080E290E0B3010E947C0313
:1004B000EA948E2D90E008171907A8F30EC0F601F4
:1004C000F7FC8591F7FE81916F0190E0B3010E94E6
:1004D0007C03E110EA94015010400115110579F7F1
:1004E000EAC0943611F0993669F5F7FE08C0F501B7
:1004F000208131814281538184E090E00AC0F5017E
:10050000808191819C01442737FD4095542F82E0E2
:1005100090E0A80EB91E9FE6F92257FF09C050953A
:100520004095309521953F4F4F4F5F4FE0E8FE2AB1
:10053000CA01B901A1012AE030E00E94A803D82E27
:10054000D21840C0953729F41F2D1F7E2AE030E0D5
:100550001DC01F2D197F9F3661F0903720F498350C
:1005600009F0ACC00FC0903739F0983709F0A6C039
:1005700004C028E030E00AC0106114FD146020E1DE
:1005800030E004C014FD166020E132E017FF08C01F
:10059000F501608171818281938144E050E008C05F
:1005A000F50180819181BC0180E090E042E050E063
:1005B000A40EB51EA1010E94A803D82ED2188FE761
:1005C000F82EF122F6FE0BC05EEFF522D91438F4B6
:1005D000F4FE07C0F2FC05C08FEEF82202C01D2D0C
:1005E00001C0192DF4FE0DC0FE01ED0DF11D80813D
:1005F000803319F499EEF92208C01F5FF2FE05C09E
:1006000003C08F2D867809F01F5F0F2DF3FC14C0F7
:10061000F0FE0FC01E1510F09D2C0BC09D2C9E0CE3
:10062000911A1E2D06C080E290E0B3010E947C0367
:100630001F5F1E15C0F304C01E1510F4E11A01C09F
:10064000EE2404FF0FC080E390E0B3010E947C031E
:1006500002FF1DC001FD03C088E790E00EC088E5E1
:1006600090E00BC0802F867891F001FF02C08BE2F2
:1006700001C080E2F7FC8DE290E0B3010E947C03B0
:1006800006C080E390E0B3010E947C039A94D914E1
:10069000C0F3DA94F101ED0DF11D808190E0B3011A
:1006A0000E947C03DD20A9F706C080E290E0B30140
:1006B0000E947C03EA94EE20C1F743CEF3016681E9
:1006C0007781CB012B96E2E10C942204FC0105908A
:1006D000615070400110D8F7809590958E0F9F1F44
:1006E0000895FC016150704001900110D8F7809589
:1006F00090958E0F9F1F08950F931F93CF93DF93B5
:100700008C01EB018B8181FF1BC082FF0DC02E810C
:100710003F818C819D812817390764F4E881F98134
:100720000193F983E88306C0E885F985802F099550
:10073000892B31F48E819F8101969F838E8302C025
:100740000FEF1FEFC801DF91CF911F910F91089517
:10075000FA01AA27283051F1203181F1E8946F93F2
:100760006E7F6E5F7F4F8F4F9F4FAF4FB1E03ED098
:10077000B4E03CD0670F781F891F9A1FA11D680F36
:10078000791F8A1F911DA11D6A0F711D811D911D69
:10079000A11D20D009F468943F912AE0269F1124DE
:1007A0003019305D3193DEF6CF010895462F477042
:1007B000405D4193B3E00FD0C9F7F6CF462F4F709D
:1007C000405D4A3318F0495D31FD4052419302D0FB
:1007D000A9F7EACFB4E0A6959795879577956795A1
:1007E000BA95C9F700976105710508959B01AC01A1
:1007F0000A2E06945795479537952795BA95C9F7C8
:10080000620F731F841F951FA01D08952F923F92A2
:100810004F925F926F927F928F929F92AF92BF9210
:10082000CF92DF92EF92FF920F931F93CF93DF93BC
:10083000CDB7DEB7CA1BDB0B0FB6F894DEBF0FBE19
:10084000CDBF09942A88398848885F846E847D8466
:100850008C849B84AA84B984C884DF80EE80FD8068
:100860000C811B81AA81B981CE0FD11D0FB6F894DE
:0E087000DEBF0FBECDBFED010895F894FFCF9F
:10087E004A656D75656C20416D706F72696E677536
:0E088E00657A00413D256420423D256400004E
:00000001FF
