:100000000C9434000C9451000C9451000C94510049
:100010000C946D000C9451000C9451000C94510000
:100020000C9451000C9451000C9451000C94BC00A1
:100030000C9451000C9451000C9451000C945100FC
:100040000C9451000C9451000C9451000C945100EC
:100050000C9451000C9451000C9451000C945100DC
:100060000C9451000C94510011241FBECFEFD8E026
:10007000DEBFCDBF11E0A0E0B1E0ECE4FBE002C0E8
:1000800005900D92A234B107D9F711E0A2E4B1E0D6
:1000900001C01D92A734B107E1F70E94E3010C945F
:1000A000A4050C9400009C01220F331F40E050E097
:1000B00060E074E284EF90E00E946E0221503040D4
:1000C000309389002093880089E080938100EFE6D7
:1000D000F0E080818260808308951F920F920FB6B6
:1000E0000F9211242F933F938F939F9326B186B144
:1000F00090E08072907034E0959587953A95E1F79D
:1001000030E02270307035952795282B20934501DB
:1001100080914401281739F1882319F42130A9F47A
:100120000EC0813019F4233081F409C0833019F4F2
:10013000223059F404C0823041F4222331F48091FA
:10014000420190914301019605C080914201909136
:10015000430101979093430180934201209344010E
:1001600081E0809346019F918F913F912F910F9055
:100170000FBE0F901F9018951F920F920FB60F92FF
:1001800011248F939F9385B190E1892785B99F9121
:100190008F910F900FBE0F901F9018958091420184
:1001A0009091430187709070892B79F5809142017D
:1001B0009091430197FF08C08091420190914301C3
:1001C000909581959F4F04C0809142019091430189
:1001D00060E470E00E945B0268E070E00E945B02F5
:1001E000E62FF0E0EE0FFF1FEE5CFE4F8081918165
:1001F0000E94530080E197E220E931E0F901319754
:10020000F1F70197D9F7109281000895CF93DF930A
:10021000EC0181E00E94150280E060E00E9428026B
:10022000D7FF06C08DE20E94F501D095C195DF4F42
:10023000C436D10574F0CE0164E670E00E945B0222
:10024000CB016AE070E00E945B02805D0E94F501D4
:1002500003C0CA30D1056CF0CE016AE070E00E94A4
:100260005B02CB016AE070E00E945B02805D0E944D
:10027000F501CE016AE070E00E945B02805D0E94A1
:10028000F501DF91CF91089580914601882351F0C7
:1002900080914201909143010E9406010E94CE008C
:1002A0001092460108950F931F93DF93CF93CDB71C
:1002B000DEB76E970FB6F894DEBF0FBECDBF0E94BB
:1002C000320280E060E00E94280280E091E00E941B
:1002D00009028DB79EB70E970FB6F8949EBF0FBE5A
:1002E0008DBFEDB7FEB731968E010F5F1F4FADB7D3
:1002F000BEB712961C930E9311978EE190E09383F4
:10030000828383E191E0958384838CE090E09783FE
:10031000868386E090E09187808781ED97E09387E0
:10032000828789E291E0958784870E94BF02F80165
:1003300001900020E9F78DB79EB70E960FB6F8949E
:100340009EBF0FBE8DBFB8016E1B7F0B6F5E7F4FD0
:100350007695679581E00E942802C8010E940902F3
:1003600081E00E94150288B1826288B9249A26B180
:1003700086B190E08072907064E0959587956A955B
:10038000E1F730E02270307035952795822B80930D
:100390004401E8E6F0E0808182608083ECE6F0E0F2
:1003A0008081826280831092800010928100789414
:1003B0006E960FB6F894DEBF0FBECDBFCF91DF9122
:1003C0001F910F9108950E9453010E944401FDCF97
:1003D0009BB18295807F9F70982B9BB9299A299A0F
:1003E000299885E08A95F1F708951F93182F85B114
:1003F0008C7F816085B9812F82958F700E94E80182
:10040000812F0E94E80180E49FE10197F1F71F919D
:100410000895CF93DF93EC0102C00E94F50189910A
:100420008823D9F7DF91CF9108951F93182F85B1B5
:100430008C7F85B9812F82958F700E94E801812F72
:100440000E94E80180E49FE10197F1F71F91089570
:10045000882319F4862F805802C0862F80540E946A
:1004600015020895209A219A579A569A559A549AA5
:1004700080E69AEE0197F1F780E30E94E80180E2BE
:100480009EE40197F1F780E30E94E80180EE91E09D
:100490000197F1F780E30E94E80180E20E94E80101
:1004A00080E49FE10197F1F788E20E9415028FE056
:1004B0000E941502089597FB092E07260AD077FDA2
:1004C00004D027D006D000201AF4709561957F4F94
:1004D0000895F6F7909581959F4F089597FB092E03
:1004E00005260ED057FD04D028D00AD0001C38F4C1
:1004F00050954095309521953F4F4F4F5F4F089550
:10050000F6F790958095709561957F4F8F4F9F4F2F
:100510000895AA1BBB1B51E107C0AA1FBB1FA6174A
:10052000B70710F0A61BB70B881F991F5A95A9F79C
:1005300080959095BC01CD010895A1E21A2EAA1BC9
:10054000BB1BFD010DC0AA1FBB1FEE1FFF1FA21783
:10055000B307E407F50720F0A21BB30BE40BF50B80
:10056000661F771F881F991F1A9469F76095709509
:10057000809590959B01AC01BD01CF010895AEE03F
:10058000B0E0E5ECF2E00C947B050D891E898F89C3
:10059000988D97FF02C080E090E801979E838D833D
:1005A0001A83098386E08C839E01255E3F4FCE012E
:1005B0000196698D7A8DA9010E94F0024D815E81BC
:1005C00057FD0AC02F813885421753070CF49A0152
:1005D000020F131FF80110822E96E4E00C94970589
:1005E000ABE0B0E0E6EFF2E00C946D053C012B01CE
:1005F0005A01FC0117821682838181FD03C06FEFCF
:100600007FEFC6C19AE0892E1E010894211C311C7F
:10061000F3012381F20123FD859123FF81912F01B5
:10062000882309F4B2C1853239F423FD859123FF73
:1006300081912F01853229F490E0B3010E94E304F7
:10064000E7CF982FFF24EE249924FFE1FF15D0F087
:100650009B3269F09C3228F4903259F0933291F435
:100660000EC09D3249F0903369F441E024C052E05D
:10067000F52A84E0F82A28C098E0F92A25C0E0E1AC
:10068000FE2A22C0F7FC29C0892F80538A3070F4DB
:10069000F6FE05C0989C902C1124980E15C0E89C7D
:1006A000E02C1124E80EF0E2FF2A0EC09E3229F45D
:1006B000F6FC6BC140E4F42A07C09C3619F450E8FC
:1006C000F52A02C0983649F4F20123FD959123FFE3
:1006D00091912F01992309F0B8CF892F8554833048
:1006E00018F08052833038F444E050E0A40EB51E78
:1006F0005FE359830FC0933631F0933779F0933528
:1007000009F056C020C0F5018081898342E050E0A5
:10071000A40EB51E610101E010E012C0F501C08019
:10072000D180F6FC03C06FEF7FEF02C0692D70E04F
:1007300042E050E0A40EB51EC6010E94D8048C0110
:100740005FE7F52214C0F501C080D180F6FC03C03C
:100750006FEF7FEF02C0692D70E042E050E0A40E21
:10076000B51EC6010E94CD048C0150E8F52AF3FEA7
:1007700007C01AC080E290E0B3010E94E304EA944B
:100780008E2D90E008171907A8F30EC0F601F7FCAC
:100790008591F7FE81916F0190E0B3010E94E3041F
:1007A000E110EA94015010400115110579F7EAC0F3
:1007B000943611F0993669F5F7FE08C0F5012081ED
:1007C00031814281538184E090E00AC0F50180814B
:1007D00091819C01442737FD4095542F82E090E0A1
:1007E000A80EB91E9FE6F92257FF09C05095409503
:1007F000309521953F4F4F4F5F4FE0E8FE2ACA01E9
:10080000B901A1012AE030E00E940F05D82ED218CC
:1008100040C0953729F41F2D1F7E2AE030E01DC00F
:100820001F2D197F9F3661F0903720F4983509F01D
:10083000ACC00FC0903739F0983709F0A6C004C09B
:1008400028E030E00AC0106114FD146020E130E0BF
:1008500004C014FD166020E132E017FF08C0F50166
:10086000608171818281938144E050E008C0F5018C
:1008700080819181BC0180E090E042E050E0A40ED4
:10088000B51EA1010E940F05D82ED2188FE7F82EB1
:10089000F122F6FE0BC05EEFF522D91438F4F4FE17
:1008A00007C0F2FC05C08FEEF82202C01D2D01C06A
:1008B000192DF4FE0DC0FE01ED0DF11D8081803378
:1008C00019F499EEF92208C01F5FF2FE05C003C0BB
:1008D0008F2D867809F01F5F0F2DF3FC14C0F0FEFA
:1008E0000FC01E1510F09D2C0BC09D2C9E0C911A54
:1008F0001E2D06C080E290E0B3010E94E3041F5F5A
:100900001E15C0F304C01E1510F4E11A01C0EE2438
:1009100004FF0FC080E390E0B3010E94E30402FFF4
:100920001DC001FD03C088E790E00EC088E590E09F
:100930000BC0802F867891F001FF02C08BE201C0CE
:1009400080E2F7FC8DE290E0B3010E94E30406C070
:1009500080E390E0B3010E94E3049A94D914C0F3B9
:10096000DA94F101ED0DF11D808190E0B3010E9458
:10097000E304DD20A9F706C080E290E0B3010E9405
:10098000E304EA94EE20C1F743CEF3016681778158
:10099000CB012B96E2E10C948905FC010590615096
:1009A00070400110D8F7809590958E0F9F1F089585
:1009B000FC016150704001900110D8F7809590952E
:1009C0008E0F9F1F08950F931F93CF93DF938C017A
:1009D000EB018B8181FF1BC082FF0DC02E813F8107
:1009E0008C819D812817390764F4E881F98101938E
:1009F000F983E88306C0E885F985802F0995892B5E
:100A000031F48E819F8101969F838E8302C00FEF08
:100A10001FEFC801DF91CF911F910F910895FA0147
:100A2000AA27283051F1203181F1E8946F936E7F2D
:100A30006E5F7F4F8F4F9F4FAF4FB1E03ED0B4E01E
:100A40003CD0670F781F891F9A1FA11D680F791F5F
:100A50008A1F911DA11D6A0F711D811D911DA11D70
:100A600020D009F468943F912AE0269F1124301980
:100A7000305D3193DEF6CF010895462F4770405D1B
:100A80004193B3E00FD0C9F7F6CF462F4F70405DCA
:100A90004A3318F0495D31FD4052419302D0A9F725
:100AA000EACFB4E0A6959795879577956795BA951F
:100AB000C9F700976105710508959B01AC010A2EE5
:100AC00006945795479537952795BA95C9F7620FBC
:100AD000731F841F951FA01D08952F923F924F9260
:100AE0005F926F927F928F929F92AF92BF92CF92BE
:100AF000DF92EF92FF920F931F93CF93DF93CDB7C7
:100B0000DEB7CA1BDB0B0FB6F894DEBF0FBECDBF3E
:100B100009942A88398848885F846E847D848C840F
:100B20009B84AA84B984C884DF80EE80FD800C8118
:100B30001B81AA81B981CE0FD11D0FB6F894DEBFFB
:0C0B40000FBECDBFED010895F894FFCF6B
:100B4C004A656D75656C20416D706F72696E677565
:100B5C00657A00446174652069732025642F2564CF
:100B6C002F2564203D2025730054687572736461D1
:100B7C007900060126014A015D018801B801EE01E8
:020B8C000B025A
:00000001FF
